:100000000C943B010C946C010C946C010C946C01ED
:100010000C946C010C946C010C946C010C946C01AC
:100020000C946C010C946C010C946C010C946C019C
:100030000C946C010C946C010C946C010C946C018C
:100040000C946C010C94FC050C946C010C946C01E8
:100050000C946C010C946C010C946C010C94B20522
:100060000C946C010C947C050C9452050C946C015E
:100070000C946C010C946C010C946C010C946C014C
:100080000C946C010C946C010C946C010C946C013C
:100090000C946C010C946C010C946C010C946C012C
:1000A0000C946C010C946C010C946C010C946C011C
:1000B0000C946C010C946C010C946C010C946C010C
:1000C0000C946C010C946C010C946C010C946C01FC
:1000D0000C946C010C946C010C946C010C946C01EC
:1000E0000C946C010C94BE010C94D5020C949B01F1
:1000F0000C9401030C94CC010C94E8030C94AA0119
:100100000C9405030C9400030C946E010C94CE0225
:100110000C94D2020C9404020C94CA020C94DF02D8
:100120000C9406060C94ED020C94E9020C94FB026C
:100130000C94F7020C944C050C94E9030C94F30214
:100140000C94C6020C94DB020C9451020C94C00275
:100150000C94E50200002100240027002A002D0055
:100160003000330001010000040107010A01000012
:100170002200250028002B002E003100340002014F
:100180000000050108010B010000200023002600EB
:1001900029002C002F00320000010000030106019D
:1001A00009010505050507050808080802020202FD
:1001B0000A0A080804040404010101010101010103
:1001C0000303030303030303040707070C0C0C0CCE
:1001D0000C0C0C0C020202020606060606060606B7
:1001E0000B0B0B0B0B0B0B0B010210202008081044
:1001F0002040102040800201020108040201010297
:10020000040810204080804020100804020180046F
:1002100002018040201008040201080402010102CA
:1002200004081020408001020408102040800000D3
:100230000A0B02090C0D0E08070304010000000060
:1002400000000000000000000000000000000000AE
:10025000000000000000000000001211100000006B
:10026000000000000000000000000000000000008E
:1002700000000000060611241FBECFEFD1E2DEBF52
:10028000CDBF00E00CBF12E0A0E0B2E0E4E0FFE090
:1002900000E00BBF02C007900D92A437B107D9F759
:1002A00023E0A4E7B2E001C01D92A233B207E1F758
:1002B00011E0CBE3D1E000E006C021970109802FD7
:1002C000FE010E947807CA33D10780E00807A9F72A
:1002D0000E9450060C9480070C940000AF92BF92CD
:1002E000CF92DF92EF92FF920F931F93CF93DF9302
:1002F0006C017B018B01040F151FEB015E01AE1831
:10030000BF08C017D10759F06991D601ED91FC9152
:100310000190F081E02DC6011995892B79F7C5016F
:10032000DF91CF911F910F91FF90EF90DF90CF90D1
:10033000BF90AF900895FC01538D448D252F30E080
:10034000842F90E0821B930B541710F0CF960895E2
:1003500001970895FC01918D828D981761F0A28D0F
:10036000AE0FBF2FB11D5D968C91928D9F5F9F73D5
:10037000928F90E008958FEF9FEF0895FC01918D8B
:10038000828D981731F0828DE80FF11D858D90E0F8
:1003900008958FEF9FEF0895FC01918D228D892F95
:1003A00090E0805C9F4F821B91098F73992708957D
:1003B0008DE792E00E94CC0121E0892B09F420E036
:1003C000822F0895FC01A48DA80FB92FB11DA35A47
:1003D000BF4F2C91848D90E001968F739927848F65
:1003E000A689B7892C93A089B1898C918370806488
:1003F0008C93938D848D981306C00288F389E02D29
:1004000080818F7D80830895EF92FF920F931F93D9
:10041000CF93DF93EC0181E0888F9B8D8C8D9813B7
:100420001AC0E889F989808185FF15C09FB7F894C3
:10043000EE89FF896083E889F9898081837080640F
:1004400080839FBF81E090E0DF91CF911F910F915A
:10045000FF90EF900895F62E0B8D10E00F5F1F4F69
:100460000F731127E02E8C8D8E110CC00FB607FC78
:10047000FACFE889F989808185FFF5CFCE010E9406
:10048000E201F1CFEB8DEC0FFD2FF11DE35AFF4F91
:10049000F0829FB7F8940B8FEA89FB898081806294
:1004A000CFCFCF93DF93EC01888D8823B9F0AA8951
:1004B000BB89E889F9898C9185FD03C0808186FD1F
:1004C0000DC00FB607FCF7CF8C9185FFF2CF80816E
:1004D00085FFEDCFCE010E94E201E9CFDF91CF9100
:1004E000089580E090E0892B29F00E94D8018111C5
:1004F0000E94000080E090E0892B49F080E090E0CD
:10050000892B29F00E94000081110E94000080E0E8
:1005100090E0892B49F080E090E0892B29F00E943F
:10052000000081110E94000080E090E0892B49F0DA
:1005300080E090E0892B29F00E94000081110C944A
:10054000000008958150823108F05AC0E82FF0E091
:100550008827E255FD4F8F4F0C947807CE02D202C8
:10056000C002C602CA020003D502DB02DF02E502B6
:10057000E902ED02F302F7020003FB0201030503A7
:10058000809180008F778093800008958091800013
:100590008F7DF9CF80918000877FF5CF84B58F77ED
:1005A00084BD089584B58F7DFBCF8091B0008F7797
:1005B0008093B00008958091B0008F7DF9CF809135
:1005C00090008F77809390000895809190008F7DA8
:1005D000F9CF80919000877FF5CF8091A0008F7731
:1005E0008093A00008958091A0008F7DF9CF809125
:1005F000A000877FF5CF809120018F778093200125
:100600000895809120018F7DF9CF80912001877F0F
:10061000F5CFCF93DF93282F30E0F901E25DFD4F56
:100620008491F901E851FE4FD491F901EE55FE4F46
:10063000C491CC23A1F081110E94A202EC2FF0E022
:10064000EE0FFF1FE857FE4FA591B491EC91ED23FB
:1006500081E090E009F480E0DF91CF91089580E09F
:1006600090E0FACF1F93CF93DF93282F30E0F9016A
:10067000E25DFD4F8491F901E851FE4FD491F901FB
:10068000EE55FE4FC491CC23A9F0162F81110E9484
:10069000A202EC2FF0E0EE0FFF1FE259FE4FA591F2
:1006A000B4918FB7F894EC91111108C0D095DE2366
:1006B000DC938FBFDF91CF911F910895DE2BF8CF90
:1006C000CF93DF9390E0FC01E851FE4F24918E55CB
:1006D0009E4FFC0184918823D1F090E0880F991FF0
:1006E000FC01EC5AFE4FA591B491FC01E259FE4F7A
:1006F000C591D49161110EC09FB7F8948C91E22FEF
:10070000E0958E238C932881E223E8839FBFDF91BD
:10071000CF9108958FB7F894EC91E22BEC938FBFB3
:10072000F6CF3FB7F8948091790290917A02A09128
:100730007B02B0917C0226B5A89B05C02F3F19F023
:100740000196A11DB11D3FBFBA2FA92F982F882751
:10075000BC01CD01620F711D811D911D42E0660F2C
:10076000771F881F991F4A95D1F708958F929F92FE
:10077000AF92BF92CF92DF92EF92FF924B015C015A
:100780000E9491036B017C010E9491036C197D0909
:100790008E099F09683E734081059105A8F321E009
:1007A000821A9108A108B10888EEC80E83E0D81E0D
:1007B000E11CF11C81149104A104B10429F7FF90FC
:1007C000EF90DF90CF90BF90AF909F908F90089563
:1007D000089590E080E00895FC0101900020E9F781
:1007E0003197AF01481B590BBC018AE193E00C948F
:1007F0006E01CF93DF93EC0160E08E810E943203A3
:1008000061E08E810E94320360E08E810E9432039B
:100810008BE891E00197F1F7DF91CF910895CF92A6
:10082000DF92EF92FF920F931F93CF93DF936C01B0
:100830007C0187E0E80EF11CD0E0C0E0062F10E05C
:10084000B8010C2E02C0759567950A94E2F76170A5
:10085000F70181917F010E9432032196C430D105B6
:1008600079F7C601DF91CF911F910F91FF90EF9023
:10087000DF90CF900C94F903CF92DF92EF92FF922A
:100880000F931F93CF93DF93EC01F62E642F8C818F
:100890000E9432038D818F3F19F060E00E94320385
:1008A0000F2D10E08F8584FF25C06E0187E0C80EF4
:1008B000D11CF12CE12CB8010E2C02C07595679566
:1008C0000A94E2F76170F60181916F010E94320390
:1008D000FFEFEF1AFF0A88E0E816F10461F7CE0196
:1008E000DF91CF911F910F91FF90EF90DF90CF900C
:1008F0000C94F903B80184E0759567958A95E1F742
:10090000CE010E940F046F2DCE01DF91CF911F9178
:100910000F91FF90EF90DF90CF900C940F0440E088
:10092000682F8AE193E00C943C0481E00E948F04DC
:100930008BE39FE10197F1F70895CF93DF93823026
:1009400029F49091290398609093290380932D03B3
:1009500010922E0380E480932F0380E18093300374
:1009600080E58093310361E080911E030E94600363
:1009700080911F038F3F19F061E00E94600361E0E6
:10098000809120030E946003CAE1D3E09E012A51B6
:1009900033408091290384FD0BC084E090E02196D0
:1009A0002817390744F461E08E810E946003EECF7E
:1009B00088E090E0F4CF8BE39DE00197F1F760E0F1
:1009C00080911E030E94320360E0809120030E9408
:1009D000320380911F038F3F19F060E00E943203C1
:1009E0008091290384FD34C063E08AE193E00E9492
:1009F0000F04CBE4D6E4CE010197F1F763E08AE17E
:100A000093E00E940F042197F1F763E08AE193E0FD
:100A10000E940F0483E592E00197F1F762E08AE11A
:100A200093E00E940F048091290380620E948F044A
:100A300084E080932A038CE00E948F040E94950436
:100A400082E080932B0386E0DF91CF910C948F049A
:100A500080620E948F048BE496E40197F1F7809105
:100A6000290380620E948F0483E592E00197F1F7E9
:100A70008091290380620E948F04D5CF90912D032D
:100A8000891710F08FEF890FE82FF0E0E65EFC4F3A
:100A9000848980680C948F0441E00E943C0481E0CA
:100AA00090E008951F920F920FB60F9211240BB68B
:100AB0000F922F933F934F935F936F937F938F93F7
:100AC0009F93AF93BF93EF93FF938DE792E00E94C4
:100AD000E201FF91EF91BF91AF919F918F917F9133
:100AE0006F915F914F913F912F910F900BBE0F909F
:100AF0000FBE0F901F9018951F920F920FB60F9276
:100B000011240BB60F922F938F939F93EF93FF9324
:100B1000E0918D02F0918E028081E0919302F0913C
:100B2000940282FD1DC09081809196028F5F8F7329
:100B300020919702821741F0E0919602F0E0E3588D
:100B4000FD4F958F80939602FF91EF919F918F912A
:100B50002F910F900BBE0F900FBE0F901F90189506
:100B60008081F2CF1F920F920FB60F9211242F9314
:100B70003F938F939F93AF93BF9380917502909112
:100B80007602A0917702B09178023091740223E04E
:100B9000230F2D3758F50196A11DB11D2093740226
:100BA0008093750290937602A0937702B0937802B7
:100BB0008091790290917A02A0917B02B0917C029F
:100BC0000196A11DB11D8093790290937A02A093A2
:100BD0007B02B0937C02BF91AF919F918F913F9127
:100BE0002F910F900FBE0F901F90189526E8230F9E
:100BF0000296A11DB11DD2CF1F920F920FB60F9278
:100C000011240F900FBE0F901F901895EDE7F2E0A2
:100C10001382128288EE93E0A0E0B0E08483958393
:100C2000A683B78384E092E09183808385EC90E093
:100C30009587848784EC90E09787868780EC90E0A6
:100C4000918B808B81EC90E0938B828B82EC90E097
:100C5000958B848B86EC90E0978B868B118E128E11
:100C6000138E148EEAE1F3E01382128286E192E0A1
:100C70009183808383E2848387E1858381E2868315
:100C800089E187838FE180878BE181878DE182878E
:100C90001386148615861686178681E00C949D04AB
:100CA000789484B5826084BD84B5816084BD85B547
:100CB000826085BD85B5816085BD80916E00816053
:100CC00080936E00109281008091810082608093F9
:100CD00081008091810081608093810080918000FB
:100CE0008160809380008091B10084608093B10026
:100CF0008091B00081608093B0008091910082600B
:100D00008093910080919100816080939100809107
:100D100090008160809390008091A1008260809318
:100D2000A1008091A10081608093A1008091A0002A
:100D300081608093A00080912101826080932101D5
:100D40008091210181608093210180912001816047
:100D50008093200180917A00846080937A00809152
:100D60007A00826080937A0080917A00816080931B
:100D70007A0080917A00806880937A001092C10096
:100D800060E088E00E94600360E087E00E9460030A
:100D900060E086E00E94600360E085E00E946003FE
:100DA00061E08EE30E94600361E08FE30E946003D4
:100DB00061E080E40E94600361E081E40E946003DE
:100DC000E0918D02F0918E0282E08083E0918902B1
:100DD000F0918A021082E0918B02F0918C028FECEC
:100DE000808310929502E0919102F091920286E048
:100DF0008083E0918F02F0919002808180618083F6
:100E0000E0918F02F0919002808188608083E09170
:100E10008F02F0919002808180688083E0918F0240
:100E2000F091900280818F7D8083109280001092DB
:100E30008100809181008C60809381008FEF90E031
:100E4000909389008093880080916F0082608093E6
:100E50006F0082E00E949D040E94950480E00E9441
:100E60003E058EE192E00E94EC0381E00E943E0587
:100E700085E292E00E94EC0368EE73E080E090E08F
:100E80000E94B60388E00E94090387E00E940903DC
:100E900086E00E9409038C0185E00E940903EC01B1
:100EA0000E94950481E001301105B1F4219779F495
:100EB0000E943E0583E392E00E94EC0364E670E04A
:100EC00080E090E00E94B6030E947102DBCF0E9496
:100ED0003E0583E492E0F0CF219729F40E943E057D
:100EE00083E592E0E9CF0E943E0583E692E0E4CFFD
:100EF000EE0FFF1F881F8BBF0790F691E02D19940E
:040F0000F894FFCF93
:100F04000000000004026E019B015102CC01AA0101
:100F1400BE01000000004C056E01E903E8034865CA
:100F24006C6C6F21004E495454432041524455493E
:100F34004E4F004E495454432041524455494E4F5C
:100F44003A30004E495454432041524455494E4F7F
:100F54003A31004E495454432041524455494E4F6E
:100F64003A32004E495454432041524455494E4F5D
:040F74003A3300000C
:00000001FF
