:100000000C943B010C946C010C946C010C946C01ED
:100010000C946C010C946C010C946C010C946C01AC
:100020000C946C010C946C010C946C010C946C019C
:100030000C946C010C946C010C946C010C946C018C
:100040000C946C010C9487050C946C010C946C015D
:100050000C946C010C946C010C946C010C943D0597
:100060000C946C010C9407050C94DD040C946C0149
:100070000C946C010C946C010C946C010C946C014C
:100080000C946C010C946C010C946C010C946C013C
:100090000C946C010C946C010C946C010C946C012C
:1000A0000C946C010C946C010C946C010C946C011C
:1000B0000C946C010C946C010C946C010C946C010C
:1000C0000C946C010C946C010C946C010C946C01FC
:1000D0000C946C010C946C010C946C010C946C01EC
:1000E0000C946C010C94BE010C94D5020C949B01F1
:1000F0000C9401030C94CC010C94AA010C940503FC
:100100000C9400030C946E010C9491030C94CE0299
:100110000C94D2020C9404020C94D7040C94CA02DE
:100120000C94DF020C9491050C94ED020C94E902FE
:100130000C94FB020C9492030C94F7020C94F302BF
:100140000C94C6020C94DB020C9451020C94C00275
:100150000C94E50200002100240027002A002D0055
:100160003000330001010000040107010A01000012
:100170002200250028002B002E003100340002014F
:100180000000050108010B010000200023002600EB
:1001900029002C002F00320000010000030106019D
:1001A00009010505050507050808080802020202FD
:1001B0000A0A080804040404010101010101010103
:1001C0000303030303030303040707070C0C0C0CCE
:1001D0000C0C0C0C020202020606060606060606B7
:1001E0000B0B0B0B0B0B0B0B010210202008081044
:1001F0002040102040800201020108040201010297
:10020000040810204080804020100804020180046F
:1002100002018040201008040201080402010102CA
:1002200004081020408001020408102040800000D3
:100230000A0B02090C0D0E08070304010000000060
:1002400000000000000000000000000000000000AE
:10025000000000000000000000001211100000006B
:10026000000000000000000000000000000000008E
:1002700000000000910511241FBECFEFD1E2DEBFC8
:10028000CDBF00E00CBF12E0A0E0B2E0ECE4FEE085
:1002900000E00BBF02C007900D92A433B107D9F75D
:1002A00022E0A4E3B2E001C01D92A23FB207E1F751
:1002B00011E0CBE3D1E000E006C021970109802FD7
:1002C000FE010E941C07CA33D10780E00807A9F786
:1002D0000E94DB050C9424070C940000AF92BF929F
:1002E000CF92DF92EF92FF920F931F93CF93DF9302
:1002F0006C017B018B01040F151FEB015E01AE1831
:10030000BF08C017D10759F06991D601ED91FC9152
:100310000190F081E02DC6011995892B79F7C5016F
:10032000DF91CF911F910F91FF90EF90DF90CF90D1
:10033000BF90AF900895FC01538D448D252F30E080
:10034000842F90E0821B930B541710F0CF960895E2
:1003500001970895FC01918D828D981761F0A28D0F
:10036000AE0FBF2FB11D5D968C91928D9F5F9F73D5
:10037000928F90E008958FEF9FEF0895FC01918D8B
:10038000828D981731F0828DE80FF11D858D90E0F8
:1003900008958FEF9FEF0895FC01918D228D892F95
:1003A00090E0805C9F4F821B91098F73992708957D
:1003B0008DE392E00E94CC0121E0892B09F420E03A
:1003C000822F0895FC01A48DA80FB92FB11DA35A47
:1003D000BF4F2C91848D90E001968F739927848F65
:1003E000A689B7892C93A089B1898C918370806488
:1003F0008C93938D848D981306C00288F389E02D29
:1004000080818F7D80830895EF92FF920F931F93D9
:10041000CF93DF93EC0181E0888F9B8D8C8D9813B7
:100420001AC0E889F989808185FF15C09FB7F894C3
:10043000EE89FF896083E889F9898081837080640F
:1004400080839FBF81E090E0DF91CF911F910F915A
:10045000FF90EF900895F62E0B8D10E00F5F1F4F69
:100460000F731127E02E8C8D8E110CC00FB607FC78
:10047000FACFE889F989808185FFF5CFCE010E9406
:10048000E201F1CFEB8DEC0FFD2FF11DE35AFF4F91
:10049000F0829FB7F8940B8FEA89FB898081806294
:1004A000CFCFCF93DF93EC01888D8823B9F0AA8951
:1004B000BB89E889F9898C9185FD03C0808186FD1F
:1004C0000DC00FB607FCF7CF8C9185FFF2CF80816E
:1004D00085FFEDCFCE010E94E201E9CFDF91CF9100
:1004E000089580E090E0892B29F00E94D8018111C5
:1004F0000E94000080E090E0892B49F080E090E0CD
:10050000892B29F00E94000081110E94000080E0E8
:1005100090E0892B49F080E090E0892B29F00E943F
:10052000000081110E94000080E090E0892B49F0DA
:1005300080E090E0892B29F00E94000081110C944A
:10054000000008958150823108F05AC0E82FF0E091
:100550008827E255FD4F8F4F0C941C07CE02D20224
:10056000C002C602CA020003D502DB02DF02E502B6
:10057000E902ED02F302F7020003FB0201030503A7
:10058000809180008F778093800008958091800013
:100590008F7DF9CF80918000877FF5CF84B58F77ED
:1005A00084BD089584B58F7DFBCF8091B0008F7797
:1005B0008093B00008958091B0008F7DF9CF809135
:1005C00090008F77809390000895809190008F7DA8
:1005D000F9CF80919000877FF5CF8091A0008F7731
:1005E0008093A00008958091A0008F7DF9CF809125
:1005F000A000877FF5CF809120018F778093200125
:100600000895809120018F7DF9CF80912001877F0F
:10061000F5CFCF93DF93282F30E0F901E25DFD4F56
:100620008491F901E851FE4FD491F901EE55FE4F46
:10063000C491CC23A1F081110E94A202EC2FF0E022
:10064000EE0FFF1FE857FE4FA591B491EC91ED23FB
:1006500081E090E009F480E0DF91CF91089580E09F
:1006600090E0FACF1F93CF93DF93282F30E0F9016A
:10067000E25DFD4F8491F901E851FE4FD491F901FB
:10068000EE55FE4FC491CC23A9F0162F81110E9484
:10069000A202EC2FF0E0EE0FFF1FE259FE4FA591F2
:1006A000B4918FB7F894EC91111108C0D095DE2366
:1006B000DC938FBFDF91CF911F910895DE2BF8CF90
:1006C000CF93DF9390E0FC01E851FE4F24918E55CB
:1006D0009E4FFC0184918823D1F090E0880F991FF0
:1006E000FC01EC5AFE4FA591B491FC01E259FE4F7A
:1006F000C591D49161110EC09FB7F8948C91E22FEF
:10070000E0958E238C932881E223E8839FBFDF91BD
:10071000CF9108958FB7F894EC91E22BEC938FBFB3
:10072000F6CF089590E080E00895CF93DF93EC0139
:1007300060E08E810E94320361E08E810E9432036C
:1007400060E08E810E9432038BE891E00197F1F71F
:10075000DF91CF910895CF92DF92EF92FF920F93A6
:100760001F93CF93DF936C017C0187E0E80EF11CAF
:10077000D0E0C0E0062F10E0B8010C2E02C0759545
:1007800067950A94E2F76170F70181917F010E94F9
:1007900032032196C430D10579F7C601DF91CF919C
:1007A0001F910F91FF90EF90DF90CF900C949503E5
:1007B000CF92DF92EF92FF920F931F93CF93DF932D
:1007C000EC01F62E642F8C810E9432038D818F3FC5
:1007D00019F060E00E9432030F2D10E08F8584FF36
:1007E00025C06E0187E0C80ED11CF12CE12CB801A8
:1007F0000E2C02C0759567950A94E2F76170F601B8
:1008000081916F010E943203FFEFEF1AFF0A88E027
:10081000E816F10461F7CE01DF91CF911F910F919E
:10082000FF90EF90DF90CF900C949503B80184E097
:10083000759567958A95E1F7CE010E94AB036F2D00
:10084000CE01DF91CF911F910F91FF90EF90DF903C
:10085000CF900C94AB0340E0682F8AED92E00C94AB
:10086000D803CF93DF93823029F49091E902986006
:100870009093E9028093ED021092EE0280E480935F
:10088000EF0280E18093F00280E58093F10261E065
:100890008091DE020E9460038091DF028F3F19F099
:1008A00061E00E94600361E08091E0020E946003C9
:1008B000CAEDD2E09E012A5D32408091E90284FDBA
:1008C0000BC084E090E021962817390744F461E0DA
:1008D0008E810E946003EECF88E090E0F4CF8BE33E
:1008E0009DE00197F1F760E08091DE020E94320303
:1008F00060E08091E0020E9432038091DF028F3F2E
:1009000019F060E00E9432038091E90284FD39C051
:1009100063E08AED92E00E94AB03CBE4D6E4CE0123
:100920000197F1F763E08AED92E00E94AB03219713
:10093000F1F763E08AED92E00E94AB0383E592E079
:100940000197F1F762E08AED92E00E94AB0380919B
:10095000E90280620E942B0484E08093EA028CE02A
:100960000E942B0481E00E942B048BE39FE10197FE
:10097000F1F782E08093EB0286E0DF91CF910C9457
:100980002B0480620E942B048BE496E40197F1F71C
:100990008091E90280620E942B0483E592E0019736
:1009A000F1F78091E90280620E942B04D0CF41E0F0
:1009B0000E94D80381E090E008951F920F920FB635
:1009C0000F9211240BB60F922F933F934F935F9387
:1009D0006F937F938F939F93AF93BF93EF93FF9307
:1009E0008DE392E00E94E201FF91EF91BF91AF9100
:1009F0009F918F917F916F915F914F913F912F9137
:100A00000F900BBE0F900FBE0F901F9018951F9266
:100A10000F920FB60F9211240BB60F922F938F9354
:100A20009F93EF93FF93E0914D02F0914E028081EE
:100A3000E0915302F091540282FD1DC0908180919B
:100A400056028F5F8F7320915702821741F0E09119
:100A50005602F0E0E35CFD4F958F80935602FF91C4
:100A6000EF919F918F912F910F900BBE0F900FBE22
:100A70000F901F9018958081F2CF1F920F920FB6A2
:100A80000F9211242F933F938F939F93AF93BF9314
:100A90008091390290913A02A0913B02B0913C02C0
:100AA0003091380223E0230F2D3758F50196A11D10
:100AB000B11D209338028093390290933A02A0939B
:100AC0003B02B0933C028091340290913502A09198
:100AD0003602B09137020196A11DB11D80933402F8
:100AE00090933502A0933602B0933702BF91AF9135
:100AF0009F918F913F912F910F900FBE0F901F905C
:100B0000189526E8230F0296A11DB11DD2CF1F9282
:100B10000F920FB60F9211240F900FBE0F901F90DF
:100B20001895EDE3F2E01382128288EE93E0A0E0E4
:100B3000B0E084839583A683B78384E092E09183B9
:100B4000808385EC90E09587848784EC90E097879C
:100B5000868780EC90E0918B808B81EC90E0938B8A
:100B6000828B82EC90E0958B848B86EC90E0978B67
:100B7000868B118E128E138E148EEAEDF2E01382A4
:100B8000128286E192E09183808383E2848387E10D
:100B9000858381E2868389E187838FE180878BE18A
:100BA00081878DE1828713861486158616861786BF
:100BB00081E00C943104789484B5826084BD84B55E
:100BC000816084BD85B5826085BD85B5816085BD48
:100BD00080916E00816080936E0010928100809100
:100BE0008100826080938100809181008160809388
:100BF0008100809180008160809380008091B100AD
:100C000084608093B1008091B00081608093B000D7
:100C10008091910082608093910080919100816029
:100C200080939100809190008160809390008091EA
:100C3000A10082608093A1008091A10081608093D7
:100C4000A1008091A00081608093A000809121018B
:100C50008260809321018091210181608093210134
:100C60008091200181608093200180917A008460CE
:100C700080937A0080917A00826080937A008091DC
:100C80007A00816080937A0080917A0080688093F6
:100C90007A001092C10060E088E00E94600360E08A
:100CA00087E00E94600360E086E00E94600360E0ED
:100CB00085E00E94600361E08EE30E94600361E0D2
:100CC0008FE30E94600361E080E40E94600361E0C2
:100CD00081E40E946003E0914D02F0914E0282E0B7
:100CE0008083E0914902F0914A021082E0914B0228
:100CF000F0914C028FEC808310925502E0915102EA
:100D0000F091520286E08083E0914F02F091500210
:100D1000808180618083E0914F02F0915002808158
:100D200088608083E0914F02F0915002808180685A
:100D30008083E0914F02F091500280818F7D80830B
:100D40001092800010928100809181008C608093CD
:100D500081008FEF90E090938900809388008091CC
:100D60006F00826080936F0082E00E94310481E016
:100D70000E942B048BE39FE10197F1F7E1E0809162
:100D8000ED028111E0E0E195F0E0E652FD4F84894B
:100D900080680E942B0446E050E06EE172E08AED2C
:100DA00092E00E946E01E091ED02E23008F042C054
:100DB000E150F0E0E652FD4F848980680E942B04E8
:100DC0004DE050E065E272E08AED92E00E946E0133
:100DD00088E00E9409036C0187E00E9409037C01FE
:100DE00086E00E9409038C0185E00E940903EC0162
:100DF00060E0CA94CD2809F061E08EE30E943203DE
:100E000060E0EA94EF2809F061E08FE30E9432038A
:100E100060E00130110509F061E080E40E943203D6
:100E200060E0219709F061E081E40E9432030E94B2
:100E30007102CECFE1E0BDCFEE0FFF1F881F8BBF49
:0C0E40000790F691E02D1994F894FFCF74
:100E4C000000000004026E019B015102CC01AA01BA
:100E5C00BE0100000000D7046E01920391034865A7
:100E6C006C6C6F21004E49545443204152445549F7
:040E7C004E4F0000D5
:00000001FF
